{
  "transactions": [
    {
      "hash": "0x01fc94c371139a231c4e0c4c697ef54821638737fcc8aa63ff3bf8b41daf1d45",
      "transactionType": "CALL",
      "contractName": null,
      "contractAddress": "0x779877a7b0d9e8603169ddbd7836e478b4624789",
      "function": "transferAndCall(address,uint256,bytes)",
      "arguments": [
        "0x9DdfaCa8183c41ad55329BdeeD9F6A8d53168B1B",
        "3000000000000000000",
        "0x6f6f88478b6a26cbb724f849eb044d4d86ee4f2632dc0dd131feb37a5fa01efd"
      ],
      "transaction": {
        "from": "0x13a1c8ec74cb67ad1b828aacc326a0031b5147cd",
        "to": "0x779877a7b0d9e8603169ddbd7836e478b4624789",
        "gas": "0x14cbb",
        "value": "0x0",
        "input": "0x4000aea00000000000000000000000009ddfaca8183c41ad55329bdeed9f6a8d53168b1b00000000000000000000000000000000000000000000000029a2241af62c0000000000000000000000000000000000000000000000000000000000000000006000000000000000000000000000000000000000000000000000000000000000206f6f88478b6a26cbb724f849eb044d4d86ee4f2632dc0dd131feb37a5fa01efd",
        "nonce": "0x341",
        "chainId": "0xaa36a7"
      },
      "additionalContracts": [],
      "isFixedGasLimit": false
    }
  ],
  "receipts": [
    {
      "status": "0x1",
      "cumulativeGasUsed": "0x9cb229",
      "logs": [
        {
          "address": "0x779877a7b0d9e8603169ddbd7836e478b4624789",
          "topics": [
            "0xddf252ad1be2c89b69c2b068fc378daa952ba7f163c4a11628f55a4df523b3ef",
            "0x00000000000000000000000013a1c8ec74cb67ad1b828aacc326a0031b5147cd",
            "0x0000000000000000000000009ddfaca8183c41ad55329bdeed9f6a8d53168b1b"
          ],
          "data": "0x00000000000000000000000000000000000000000000000029a2241af62c0000",
          "blockHash": "0xe77df4639c0e4bc5022690e17c7678564b55fde97696cc0e1af65669a2aff08f",
          "blockNumber": "0x62ae73",
          "transactionHash": "0x01fc94c371139a231c4e0c4c697ef54821638737fcc8aa63ff3bf8b41daf1d45",
          "transactionIndex": "0x58",
          "logIndex": "0x78",
          "removed": false
        },
        {
          "address": "0x779877a7b0d9e8603169ddbd7836e478b4624789",
          "topics": [
            "0xe19260aff97b920c7df27010903aeb9c8d2be5d310a2c67824cf3f15396e4c16",
            "0x00000000000000000000000013a1c8ec74cb67ad1b828aacc326a0031b5147cd",
            "0x0000000000000000000000009ddfaca8183c41ad55329bdeed9f6a8d53168b1b"
          ],
          "data": "0x00000000000000000000000000000000000000000000000029a2241af62c0000000000000000000000000000000000000000000000000000000000000000004000000000000000000000000000000000000000000000000000000000000000206f6f88478b6a26cbb724f849eb044d4d86ee4f2632dc0dd131feb37a5fa01efd",
          "blockHash": "0xe77df4639c0e4bc5022690e17c7678564b55fde97696cc0e1af65669a2aff08f",
          "blockNumber": "0x62ae73",
          "transactionHash": "0x01fc94c371139a231c4e0c4c697ef54821638737fcc8aa63ff3bf8b41daf1d45",
          "transactionIndex": "0x58",
          "logIndex": "0x79",
          "removed": false
        },
        {
          "address": "0x9ddfaca8183c41ad55329bdeed9f6a8d53168b1b",
          "topics": [
            "0x1ced9348ff549fceab2ac57cd3a9de38edaaab274b725ee82c23e8fc8c4eec7a",
            "0x6f6f88478b6a26cbb724f849eb044d4d86ee4f2632dc0dd131feb37a5fa01efd"
          ],
          "data": "0x0000000000000000000000000000000000000000000000004563918244f400000000000000000000000000000000000000000000000000006f05b59d3b200000",
          "blockHash": "0xe77df4639c0e4bc5022690e17c7678564b55fde97696cc0e1af65669a2aff08f",
          "blockNumber": "0x62ae73",
          "transactionHash": "0x01fc94c371139a231c4e0c4c697ef54821638737fcc8aa63ff3bf8b41daf1d45",
          "transactionIndex": "0x58",
          "logIndex": "0x7a",
          "removed": false
        }
      ],
      "logsBloom": "0x00000004000000000000000000000000000000000020000000000000020000000000000000000000000000000000000000000000000000000420000000000000000800000000000000000008000000000000000000000000000020000020000008000000000000000000000000000000000000000000000000000010000040000000000000800000000000010000800000000020000000000000000000000000000000000000000000000000110000000000000000000000100004000000000000000002000000000000000000000000000000000000000100000000000000000010000000000000800000000000000000000000000000000000000000000000",
      "type": "0x2",
      "transactionHash": "0x01fc94c371139a231c4e0c4c697ef54821638737fcc8aa63ff3bf8b41daf1d45",
      "transactionIndex": "0x58",
      "blockHash": "0xe77df4639c0e4bc5022690e17c7678564b55fde97696cc0e1af65669a2aff08f",
      "blockNumber": "0x62ae73",
      "gasUsed": "0xf0e5",
      "effectiveGasPrice": "0x77dec5430",
      "from": "0x13a1c8ec74cb67ad1b828aacc326a0031b5147cd",
      "to": "0x779877a7b0d9e8603169ddbd7836e478b4624789",
      "contractAddress": null
    }
  ],
  "libraries": [],
  "pending": [],
  "returns": {},
  "timestamp": 1723211045,
  "chain": 11155111,
  "commit": "8643781"
}